{
  "status": false,
  "gasUsed": "0x32772",
  "cumulativeGasUsed": "0x32772",
  "blockNumber": "0x167274e",
  "type": "0x2",
  "logsBloom": "0x00000000000000000000000000000000000000000000000000000000000000000000000000000000000000000000000000000000000000000000000000000000000000000000000000000000000000000000000000000000000000000000000000000000000000000000000000000000000000000000000000000000000000000000000000000000000000000000000000000000000000000000000000000000000000000000000000000000000000000000000000000000000000000000000000000000000000000000000000000000000000000000000000000000000000000000000000000000000000000000000000000000000000000000000000000000",
  "logs": [],
  "trace": [
    {
      "type": "CALL",
      "from": "0xfea929988acb936a66e2b2ec39bc087cb7922ff4",
      "to": "0x3c11f6265ddec22f4d049dde480615735f451646",
      "gas": "0xd4190",
      "gasUsed": "0x2ad62",
      "value": "0x0",
      "error": "execution reverted",
      "input": "0x049639fb00000000000000000000000000000000000000000000000000000000000000040000000000000000000000009cdf242ef7975d8c68d5c1f5b6905801699b1940000000000000000000000000d7efb00d12c2c13131fd319336fdf952525da2af0000000000000000000000000000000000000000000005a433e014d1b1db660700000000000000000000000000000000000000000000000000000000009c0fac00000000000000000000000000000000000000000000000000000000000000c000000000000000000000000000000000000000000000000000000000000003a812aa3caf0000000000000000000000005141b82f5ffda4c6fe1e372978f1c5427640a1900000000000000000000000009cdf242ef7975d8c68d5c1f5b6905801699b1940000000000000000000000000d7efb00d12c2c13131fd319336fdf952525da2af0000000000000000000000006ec94f50cadcc79984463688de42a0ca696ec2db000000000000000000000000a7ca2c8673bcfa5a26d8ceec2887f2cc2b0db22a0000000000000000000000000000000000000000000005a433e014d1b1db660700000000000000000000000000000000000000000000000000000000009c0fac0000000000000000000000000000000000000000000000000000000000000004000000000000000000000000000000000000000000000000000000000000014000000000000000000000000000000000000000000000000000000000000001600000000000000000000000000000000000000000000000000000000000000000000000000000000000000000000000000000000000000000000000000000021e00000000000000000000000000000000000000020000019d00018300005300206ae4071198002dc6c06ec94f50cadcc79984463688de42a0ca696ec2db00000000000000000000000000000000000000000000000000000000005c63539cdf242ef7975d8c68d5c1f5b6905801699b194051300c95ea31e4501b3b879cae2232087e478d44aeaba0b86991c6218b36c1d19d4a2e9eb0ce3606eb4800841d8a79620000000000000000000000000000000000000000000000000000000000000000000000000000000000000000a0b86991c6218b36c1d19d4a2e9eb0ce3606eb48553a2efc570c9e104942cec6ac1c18118e54c09100068db8bac710cb00000064000000000000000000000000000000000000000000000000000000000000000100000000000000000000000000000000000000000000000000000000000000000000000000000000000000000000000000000000ffff9a5889f795069a41a8a300000000000000000000000000000000000000000000000000000000000000000000000000000000000000000000000000000000000000000004d9ca7080b7ea4041c02aaa39b223fe8d0a0e5c4f27ead9083c756cc2d0e30db002a000000000000000000000000000000000000000000000000000000000009c0facee63c1e581464bd7e6718a815c20a5ad529003d7a93a9676b3c02aaa39b223fe8d0a0e5c4f27ead9083c756cc21111111254eeb25477b68fb85ed929f73a9605820000c4e3736f000000000000000000000000000000000000000000000000",
      "decodedInput": [
        {
          "value": 4,
          "type": "uint8",
          "name": "source",
          "indexed": false
        },
        {
          "value": "0x9cdf242ef7975d8c68d5c1f5b6905801699b1940",
          "type": "address",
          "name": "tokenIn",
          "indexed": false
        },
        {
          "value": "0xd7efb00d12c2c13131fd319336fdf952525da2af",
          "type": "address",
          "name": "tokenOut",
          "indexed": false
        },
        {
          "value": "26640836453018174711303",
          "type": "uint256",
          "name": "amountIn",
          "indexed": false
        },
        {
          "value": "10227628",
          "type": "uint256",
          "name": "minAmountOut",
          "indexed": false
        },
        {
          "value": "0x12aa3caf0000000000000000000000005141b82f5ffda4c6fe1e372978f1c5427640a1900000000000000000000000009cdf242ef7975d8c68d5c1f5b6905801699b1940000000000000000000000000d7efb00d12c2c13131fd319336fdf952525da2af0000000000000000000000006ec94f50cadcc79984463688de42a0ca696ec2db000000000000000000000000a7ca2c8673bcfa5a26d8ceec2887f2cc2b0db22a0000000000000000000000000000000000000000000005a433e014d1b1db660700000000000000000000000000000000000000000000000000000000009c0fac0000000000000000000000000000000000000000000000000000000000000004000000000000000000000000000000000000000000000000000000000000014000000000000000000000000000000000000000000000000000000000000001600000000000000000000000000000000000000000000000000000000000000000000000000000000000000000000000000000000000000000000000000000021e00000000000000000000000000000000000000020000019d00018300005300206ae4071198002dc6c06ec94f50cadcc79984463688de42a0ca696ec2db00000000000000000000000000000000000000000000000000000000005c63539cdf242ef7975d8c68d5c1f5b6905801699b194051300c95ea31e4501b3b879cae2232087e478d44aeaba0b86991c6218b36c1d19d4a2e9eb0ce3606eb4800841d8a79620000000000000000000000000000000000000000000000000000000000000000000000000000000000000000a0b86991c6218b36c1d19d4a2e9eb0ce3606eb48553a2efc570c9e104942cec6ac1c18118e54c09100068db8bac710cb00000064000000000000000000000000000000000000000000000000000000000000000100000000000000000000000000000000000000000000000000000000000000000000000000000000000000000000000000000000ffff9a5889f795069a41a8a300000000000000000000000000000000000000000000000000000000000000000000000000000000000000000000000000000000000000000004d9ca7080b7ea4041c02aaa39b223fe8d0a0e5c4f27ead9083c756cc2d0e30db002a000000000000000000000000000000000000000000000000000000000009c0facee63c1e581464bd7e6718a815c20a5ad529003d7a93a9676b3c02aaa39b223fe8d0a0e5c4f27ead9083c756cc21111111254eeb25477b68fb85ed929f73a9605820000c4e3736f",
          "type": "bytes",
          "name": "data",
          "indexed": false
        }
      ],
      "method": "call",
      "output": "0x",
      "subtraces": 3,
      "traceAddress": []
    },
    {
      "type": "STATICCALL",
      "from": "0x3c11f6265ddec22f4d049dde480615735f451646",
      "to": "0x9cdf242ef7975d8c68d5c1f5b6905801699b1940",
      "gas": "0xcd8d5",
      "gasUsed": "0x1e3a",
      "input": "0xdd62ed3e000000000000000000000000fea929988acb936a66e2b2ec39bc087cb7922ff4000000000000000000000000a7ca2c8673bcfa5a26d8ceec2887f2cc2b0db22a",
      "decodedInput": [
        {
          "value": "0xfea929988acb936a66e2b2ec39bc087cb7922ff4",
          "type": "address",
          "name": "owner",
          "indexed": false
        },
        {
          "value": "0xa7ca2c8673bcfa5a26d8ceec2887f2cc2b0db22a",
          "type": "address",
          "name": "spender",
          "indexed": false
        }
      ],
      "output": "0xffffffffffffffffffffffffffffffffffffffffffffffffffffffffffffffff",
      "decodedOutput": [
        {
          "value": "115792089237316195423570985008687907853269984665640564039457584007913129639935",
          "type": "uint256",
          "indexed": false
        }
      ],
      "subtraces": 1,
      "traceAddress": [
        0
      ]
    },
    {
      "type": "DELEGATECALL",
      "from": "0x9cdf242ef7975d8c68d5c1f5b6905801699b1940",
      "to": "0x4067f3e3fd91cf05117b4482e2552f0da031a3b6",
      "gas": "0xc92c2",
      "gasUsed": "0xb15",
      "input": "0xdd62ed3e000000000000000000000000fea929988acb936a66e2b2ec39bc087cb7922ff4000000000000000000000000a7ca2c8673bcfa5a26d8ceec2887f2cc2b0db22a",
      "decodedInput": [
        {
          "value": "0xfea929988acb936a66e2b2ec39bc087cb7922ff4",
          "type": "address",
          "name": "owner",
          "indexed": false
        },
        {
          "value": "0xa7ca2c8673bcfa5a26d8ceec2887f2cc2b0db22a",
          "type": "address",
          "name": "spender",
          "indexed": false
        }
      ],
      "method": "allowance",
      "output": "0xffffffffffffffffffffffffffffffffffffffffffffffffffffffffffffffff",
      "decodedOutput": [
        {
          "value": "115792089237316195423570985008687907853269984665640564039457584007913129639935",
          "type": "uint256",
          "indexed": false
        }
      ],
      "subtraces": 0,
      "traceAddress": [
        0,
        0
      ]
    },
    {
      "type": "CALL",
      "from": "0x3c11f6265ddec22f4d049dde480615735f451646",
      "to": "0xa7ca2c8673bcfa5a26d8ceec2887f2cc2b0db22a",
      "gas": "0xcae39",
      "gasUsed": "0x10b49",
      "value": "0x0",
      "input": "0x5af547e60000000000000000000000009cdf242ef7975d8c68d5c1f5b6905801699b1940000000000000000000000000fea929988acb936a66e2b2ec39bc087cb7922ff40000000000000000000000000000000000000000000005a433e014d1b1db660700000000000000000000000000000000000000000000000000000000000000800000000000000000000000000000000000000000000000000000000000000000",
      "decodedInput": [
        {
          "value": "0x9cdf242ef7975d8c68d5c1f5b6905801699b1940",
          "type": "address",
          "name": "token",
          "indexed": false
        },
        {
          "value": "0xfea929988acb936a66e2b2ec39bc087cb7922ff4",
          "type": "address",
          "name": "from",
          "indexed": false
        },
        {
          "value": "26640836453018174711303",
          "type": "uint256",
          "name": "amount",
          "indexed": false
        },
        {
          "value": "0x",
          "type": "bytes",
          "name": "data",
          "indexed": false
        }
      ],
      "method": "collect",
      "output": "0x0000000000000000000000000000000000000000000005a433e014d1b1db6607",
      "decodedOutput": [
        {
          "value": "26640836453018174711303",
          "type": "uint256",
          "name": "collected",
          "indexed": false
        }
      ],
      "subtraces": 1,
      "traceAddress": [
        1
      ]
    },
    {
      "type": "DELEGATECALL",
      "from": "0xa7ca2c8673bcfa5a26d8ceec2887f2cc2b0db22a",
      "to": "0x3e88c9b0e3be6817973a6e629211e702d12c577f",
      "gas": "0xc7146",
      "gasUsed": "0x100c1",
      "input": "0x5af547e60000000000000000000000009cdf242ef7975d8c68d5c1f5b6905801699b1940000000000000000000000000fea929988acb936a66e2b2ec39bc087cb7922ff40000000000000000000000000000000000000000000005a433e014d1b1db660700000000000000000000000000000000000000000000000000000000000000800000000000000000000000000000000000000000000000000000000000000000",
      "decodedInput": [
        {
          "value": "0x9cdf242ef7975d8c68d5c1f5b6905801699b1940",
          "type": "address",
          "name": "token",
          "indexed": false
        },
        {
          "value": "0xfea929988acb936a66e2b2ec39bc087cb7922ff4",
          "type": "address",
          "name": "from",
          "indexed": false
        },
        {
          "value": "26640836453018174711303",
          "type": "uint256",
          "name": "amount",
          "indexed": false
        },
        {
          "value": "0x",
          "type": "bytes",
          "name": "data",
          "indexed": false
        }
      ],
      "method": "collect",
      "output": "0x0000000000000000000000000000000000000000000005a433e014d1b1db6607",
      "decodedOutput": [
        {
          "value": "26640836453018174711303",
          "type": "uint256",
          "name": "collected",
          "indexed": false
        }
      ],
      "subtraces": 3,
      "traceAddress": [
        1,
        0
      ]
    },
    {
      "type": "STATICCALL",
      "from": "0xa7ca2c8673bcfa5a26d8ceec2887f2cc2b0db22a",
      "to": "0x9cdf242ef7975d8c68d5c1f5b6905801699b1940",
      "gas": "0xc2925",
      "gasUsed": "0xbe7",
      "input": "0x70a08231000000000000000000000000a7ca2c8673bcfa5a26d8ceec2887f2cc2b0db22a",
      "decodedInput": [
        {
          "value": "0xa7ca2c8673bcfa5a26d8ceec2887f2cc2b0db22a",
          "type": "address",
          "name": "account",
          "indexed": false
        }
      ],
      "output": "0x0000000000000000000000000000000000000000000000000000000000000000",
      "decodedOutput": [
        {
          "value": "0",
          "type": "uint256",
          "indexed": false
        }
      ],
      "subtraces": 1,
      "traceAddress": [
        1,
        0,
        0
      ]
    },
    {
      "type": "DELEGATECALL",
      "from": "0x9cdf242ef7975d8c68d5c1f5b6905801699b1940",
      "to": "0x4067f3e3fd91cf05117b4482e2552f0da031a3b6",
      "gas": "0xbf721",
      "gasUsed": "0xa59",
      "input": "0x70a08231000000000000000000000000a7ca2c8673bcfa5a26d8ceec2887f2cc2b0db22a",
      "decodedInput": [
        {
          "value": "0xa7ca2c8673bcfa5a26d8ceec2887f2cc2b0db22a",
          "type": "address",
          "name": "account",
          "indexed": false
        }
      ],
      "method": "balanceOf",
      "output": "0x0000000000000000000000000000000000000000000000000000000000000000",
      "decodedOutput": [
        {
          "value": "0",
          "type": "uint256",
          "indexed": false
        }
      ],
      "subtraces": 0,
      "traceAddress": [
        1,
        0,
        0,
        0
      ]
    },
    {
      "type": "CALL",
      "from": "0xa7ca2c8673bcfa5a26d8ceec2887f2cc2b0db22a",
      "to": "0x9cdf242ef7975d8c68d5c1f5b6905801699b1940",
      "gas": "0xc1832",
      "gasUsed": "0xc607",
      "value": "0x0",
      "input": "0x23b872dd000000000000000000000000fea929988acb936a66e2b2ec39bc087cb7922ff4000000000000000000000000a7ca2c8673bcfa5a26d8ceec2887f2cc2b0db22a0000000000000000000000000000000000000000000005a433e014d1b1db6607",
      "decodedInput": [
        {
          "value": "0xfea929988acb936a66e2b2ec39bc087cb7922ff4",
          "type": "address",
          "name": "from",
          "indexed": false
        },
        {
          "value": "0xa7ca2c8673bcfa5a26d8ceec2887f2cc2b0db22a",
          "type": "address",
          "name": "to",
          "indexed": false
        },
        {
          "value": "26640836453018174711303",
          "type": "uint256",
          "name": "amount",
          "indexed": false
        }
      ],
      "output": "0x0000000000000000000000000000000000000000000000000000000000000001",
      "decodedOutput": [
        {
          "value": true,
          "type": "bool",
          "indexed": false
        }
      ],
      "subtraces": 1,
      "traceAddress": [
        1,
        0,
        1
      ]
    },
    {
      "type": "DELEGATECALL",
      "from": "0x9cdf242ef7975d8c68d5c1f5b6905801699b1940",
      "to": "0x4067f3e3fd91cf05117b4482e2552f0da031a3b6",
      "gas": "0xbe669",
      "gasUsed": "0xc470",
      "input": "0x23b872dd000000000000000000000000fea929988acb936a66e2b2ec39bc087cb7922ff4000000000000000000000000a7ca2c8673bcfa5a26d8ceec2887f2cc2b0db22a0000000000000000000000000000000000000000000005a433e014d1b1db6607",
      "decodedInput": [
        {
          "value": "0xfea929988acb936a66e2b2ec39bc087cb7922ff4",
          "type": "address",
          "name": "sender",
          "indexed": false
        },
        {
          "value": "0xa7ca2c8673bcfa5a26d8ceec2887f2cc2b0db22a",
          "type": "address",
          "name": "recipient",
          "indexed": false
        },
        {
          "value": "26640836453018174711303",
          "type": "uint256",
          "name": "amount",
          "indexed": false
        }
      ],
      "method": "transferFrom",
      "output": "0x0000000000000000000000000000000000000000000000000000000000000001",
      "decodedOutput": [
        {
          "value": true,
          "type": "bool",
          "indexed": false
        }
      ],
      "subtraces": 0,
      "traceAddress": [
        1,
        0,
        1,
        0
      ]
    },
    {
      "type": "STATICCALL",
      "from": "0xa7ca2c8673bcfa5a26d8ceec2887f2cc2b0db22a",
      "to": "0x9cdf242ef7975d8c68d5c1f5b6905801699b1940",
      "gas": "0xb520f",
      "gasUsed": "0x417",
      "input": "0x70a08231000000000000000000000000a7ca2c8673bcfa5a26d8ceec2887f2cc2b0db22a",
      "decodedInput": [
        {
          "value": "0xa7ca2c8673bcfa5a26d8ceec2887f2cc2b0db22a",
          "type": "address",
          "name": "account",
          "indexed": false
        }
      ],
      "output": "0x0000000000000000000000000000000000000000000005a433e014d1b1db6607",
      "decodedOutput": [
        {
          "value": "26640836453018174711303",
          "type": "uint256",
          "indexed": false
        }
      ],
      "subtraces": 1,
      "traceAddress": [
        1,
        0,
        2
      ]
    },
    {
      "type": "DELEGATECALL",
      "from": "0x9cdf242ef7975d8c68d5c1f5b6905801699b1940",
      "to": "0x4067f3e3fd91cf05117b4482e2552f0da031a3b6",
      "gas": "0xb2368",
      "gasUsed": "0x289",
      "input": "0x70a08231000000000000000000000000a7ca2c8673bcfa5a26d8ceec2887f2cc2b0db22a",
      "decodedInput": [
        {
          "value": "0xa7ca2c8673bcfa5a26d8ceec2887f2cc2b0db22a",
          "type": "address",
          "name": "account",
          "indexed": false
        }
      ],
      "method": "balanceOf",
      "output": "0x0000000000000000000000000000000000000000000005a433e014d1b1db6607",
      "decodedOutput": [
        {
          "value": "26640836453018174711303",
          "type": "uint256",
          "indexed": false
        }
      ],
      "subtraces": 0,
      "traceAddress": [
        1,
        0,
        2,
        0
      ]
    },
    {
      "type": "CALL",
      "from": "0x3c11f6265ddec22f4d049dde480615735f451646",
      "to": "0xa7ca2c8673bcfa5a26d8ceec2887f2cc2b0db22a",
      "gas": "0xb998d",
      "gasUsed": "0x13458",
      "value": "0x0",
      "error": "execution reverted",
      "input": "0x37e0ac0200000000000000000000000000000000000000000000000000000000000000040000000000000000000000009cdf242ef7975d8c68d5c1f5b6905801699b1940000000000000000000000000d7efb00d12c2c13131fd319336fdf952525da2af0000000000000000000000000000000000000000000005a433e014d1b1db6607000000000000000000000000000000000000000000000000000000000000000100000000000000000000000000000000000000000000000000000000009c0fac00000000000000000000000000000000000000000000000000000000000000e000000000000000000000000000000000000000000000000000000000000003a812aa3caf0000000000000000000000005141b82f5ffda4c6fe1e372978f1c5427640a1900000000000000000000000009cdf242ef7975d8c68d5c1f5b6905801699b1940000000000000000000000000d7efb00d12c2c13131fd319336fdf952525da2af0000000000000000000000006ec94f50cadcc79984463688de42a0ca696ec2db000000000000000000000000a7ca2c8673bcfa5a26d8ceec2887f2cc2b0db22a0000000000000000000000000000000000000000000005a433e014d1b1db660700000000000000000000000000000000000000000000000000000000009c0fac0000000000000000000000000000000000000000000000000000000000000004000000000000000000000000000000000000000000000000000000000000014000000000000000000000000000000000000000000000000000000000000001600000000000000000000000000000000000000000000000000000000000000000000000000000000000000000000000000000000000000000000000000000021e00000000000000000000000000000000000000020000019d00018300005300206ae4071198002dc6c06ec94f50cadcc79984463688de42a0ca696ec2db00000000000000000000000000000000000000000000000000000000005c63539cdf242ef7975d8c68d5c1f5b6905801699b194051300c95ea31e4501b3b879cae2232087e478d44aeaba0b86991c6218b36c1d19d4a2e9eb0ce3606eb4800841d8a79620000000000000000000000000000000000000000000000000000000000000000000000000000000000000000a0b86991c6218b36c1d19d4a2e9eb0ce3606eb48553a2efc570c9e104942cec6ac1c18118e54c09100068db8bac710cb00000064000000000000000000000000000000000000000000000000000000000000000100000000000000000000000000000000000000000000000000000000000000000000000000000000000000000000000000000000ffff9a5889f795069a41a8a300000000000000000000000000000000000000000000000000000000000000000000000000000000000000000000000000000000000000000004d9ca7080b7ea4041c02aaa39b223fe8d0a0e5c4f27ead9083c756cc2d0e30db002a000000000000000000000000000000000000000000000000000000000009c0facee63c1e581464bd7e6718a815c20a5ad529003d7a93a9676b3c02aaa39b223fe8d0a0e5c4f27ead9083c756cc21111111254eeb25477b68fb85ed929f73a9605820000c4e3736f000000000000000000000000000000000000000000000000",
      "decodedInput": [
        {
          "value": 4,
          "type": "uint8",
          "name": "source",
          "indexed": false
        },
        {
          "value": "0x9cdf242ef7975d8c68d5c1f5b6905801699b1940",
          "type": "address",
          "name": "tokenIn",
          "indexed": false
        },
        {
          "value": "0xd7efb00d12c2c13131fd319336fdf952525da2af",
          "type": "address",
          "name": "tokenOut",
          "indexed": false
        },
        {
          "value": "26640836453018174711303",
          "type": "uint256",
          "name": "amountIn",
          "indexed": false
        },
        {
          "value": 1,
          "type": "uint8",
          "name": "limitType",
          "indexed": false
        },
        {
          "value": "10227628",
          "type": "uint256",
          "name": "limitAmount",
          "indexed": false
        },
        {
          "value": "0x12aa3caf0000000000000000000000005141b82f5ffda4c6fe1e372978f1c5427640a1900000000000000000000000009cdf242ef7975d8c68d5c1f5b6905801699b1940000000000000000000000000d7efb00d12c2c13131fd319336fdf952525da2af0000000000000000000000006ec94f50cadcc79984463688de42a0ca696ec2db000000000000000000000000a7ca2c8673bcfa5a26d8ceec2887f2cc2b0db22a0000000000000000000000000000000000000000000005a433e014d1b1db660700000000000000000000000000000000000000000000000000000000009c0fac0000000000000000000000000000000000000000000000000000000000000004000000000000000000000000000000000000000000000000000000000000014000000000000000000000000000000000000000000000000000000000000001600000000000000000000000000000000000000000000000000000000000000000000000000000000000000000000000000000000000000000000000000000021e00000000000000000000000000000000000000020000019d00018300005300206ae4071198002dc6c06ec94f50cadcc79984463688de42a0ca696ec2db00000000000000000000000000000000000000000000000000000000005c63539cdf242ef7975d8c68d5c1f5b6905801699b194051300c95ea31e4501b3b879cae2232087e478d44aeaba0b86991c6218b36c1d19d4a2e9eb0ce3606eb4800841d8a79620000000000000000000000000000000000000000000000000000000000000000000000000000000000000000a0b86991c6218b36c1d19d4a2e9eb0ce3606eb48553a2efc570c9e104942cec6ac1c18118e54c09100068db8bac710cb00000064000000000000000000000000000000000000000000000000000000000000000100000000000000000000000000000000000000000000000000000000000000000000000000000000000000000000000000000000ffff9a5889f795069a41a8a300000000000000000000000000000000000000000000000000000000000000000000000000000000000000000000000000000000000000000004d9ca7080b7ea4041c02aaa39b223fe8d0a0e5c4f27ead9083c756cc2d0e30db002a000000000000000000000000000000000000000000000000000000000009c0facee63c1e581464bd7e6718a815c20a5ad529003d7a93a9676b3c02aaa39b223fe8d0a0e5c4f27ead9083c756cc21111111254eeb25477b68fb85ed929f73a9605820000c4e3736f",
          "type": "bytes",
          "name": "data",
          "indexed": false
        }
      ],
      "method": "swap",
      "output": "0x",
      "subtraces": 1,
      "traceAddress": [
        2
      ]
    },
    {
      "type": "DELEGATECALL",
      "from": "0xa7ca2c8673bcfa5a26d8ceec2887f2cc2b0db22a",
      "to": "0x3e88c9b0e3be6817973a6e629211e702d12c577f",
      "gas": "0xb69c5",
      "gasUsed": "0x132cd",
      "error": "execution reverted",
      "input": "0x37e0ac0200000000000000000000000000000000000000000000000000000000000000040000000000000000000000009cdf242ef7975d8c68d5c1f5b6905801699b1940000000000000000000000000d7efb00d12c2c13131fd319336fdf952525da2af0000000000000000000000000000000000000000000005a433e014d1b1db6607000000000000000000000000000000000000000000000000000000000000000100000000000000000000000000000000000000000000000000000000009c0fac00000000000000000000000000000000000000000000000000000000000000e000000000000000000000000000000000000000000000000000000000000003a812aa3caf0000000000000000000000005141b82f5ffda4c6fe1e372978f1c5427640a1900000000000000000000000009cdf242ef7975d8c68d5c1f5b6905801699b1940000000000000000000000000d7efb00d12c2c13131fd319336fdf952525da2af0000000000000000000000006ec94f50cadcc79984463688de42a0ca696ec2db000000000000000000000000a7ca2c8673bcfa5a26d8ceec2887f2cc2b0db22a0000000000000000000000000000000000000000000005a433e014d1b1db660700000000000000000000000000000000000000000000000000000000009c0fac0000000000000000000000000000000000000000000000000000000000000004000000000000000000000000000000000000000000000000000000000000014000000000000000000000000000000000000000000000000000000000000001600000000000000000000000000000000000000000000000000000000000000000000000000000000000000000000000000000000000000000000000000000021e00000000000000000000000000000000000000020000019d00018300005300206ae4071198002dc6c06ec94f50cadcc79984463688de42a0ca696ec2db00000000000000000000000000000000000000000000000000000000005c63539cdf242ef7975d8c68d5c1f5b6905801699b194051300c95ea31e4501b3b879cae2232087e478d44aeaba0b86991c6218b36c1d19d4a2e9eb0ce3606eb4800841d8a79620000000000000000000000000000000000000000000000000000000000000000000000000000000000000000a0b86991c6218b36c1d19d4a2e9eb0ce3606eb48553a2efc570c9e104942cec6ac1c18118e54c09100068db8bac710cb00000064000000000000000000000000000000000000000000000000000000000000000100000000000000000000000000000000000000000000000000000000000000000000000000000000000000000000000000000000ffff9a5889f795069a41a8a300000000000000000000000000000000000000000000000000000000000000000000000000000000000000000000000000000000000000000004d9ca7080b7ea4041c02aaa39b223fe8d0a0e5c4f27ead9083c756cc2d0e30db002a000000000000000000000000000000000000000000000000000000000009c0facee63c1e581464bd7e6718a815c20a5ad529003d7a93a9676b3c02aaa39b223fe8d0a0e5c4f27ead9083c756cc21111111254eeb25477b68fb85ed929f73a9605820000c4e3736f000000000000000000000000000000000000000000000000",
      "decodedInput": [
        {
          "value": 4,
          "type": "uint8",
          "name": "source",
          "indexed": false
        },
        {
          "value": "0x9cdf242ef7975d8c68d5c1f5b6905801699b1940",
          "type": "address",
          "name": "tokenIn",
          "indexed": false
        },
        {
          "value": "0xd7efb00d12c2c13131fd319336fdf952525da2af",
          "type": "address",
          "name": "tokenOut",
          "indexed": false
        },
        {
          "value": "26640836453018174711303",
          "type": "uint256",
          "name": "amountIn",
          "indexed": false
        },
        {
          "value": 1,
          "type": "uint8",
          "name": "limitType",
          "indexed": false
        },
        {
          "value": "10227628",
          "type": "uint256",
          "name": "limitAmount",
          "indexed": false
        },
        {
          "value": "0x12aa3caf0000000000000000000000005141b82f5ffda4c6fe1e372978f1c5427640a1900000000000000000000000009cdf242ef7975d8c68d5c1f5b6905801699b1940000000000000000000000000d7efb00d12c2c13131fd319336fdf952525da2af0000000000000000000000006ec94f50cadcc79984463688de42a0ca696ec2db000000000000000000000000a7ca2c8673bcfa5a26d8ceec2887f2cc2b0db22a0000000000000000000000000000000000000000000005a433e014d1b1db660700000000000000000000000000000000000000000000000000000000009c0fac0000000000000000000000000000000000000000000000000000000000000004000000000000000000000000000000000000000000000000000000000000014000000000000000000000000000000000000000000000000000000000000001600000000000000000000000000000000000000000000000000000000000000000000000000000000000000000000000000000000000000000000000000000021e00000000000000000000000000000000000000020000019d00018300005300206ae4071198002dc6c06ec94f50cadcc79984463688de42a0ca696ec2db00000000000000000000000000000000000000000000000000000000005c63539cdf242ef7975d8c68d5c1f5b6905801699b194051300c95ea31e4501b3b879cae2232087e478d44aeaba0b86991c6218b36c1d19d4a2e9eb0ce3606eb4800841d8a79620000000000000000000000000000000000000000000000000000000000000000000000000000000000000000a0b86991c6218b36c1d19d4a2e9eb0ce3606eb48553a2efc570c9e104942cec6ac1c18118e54c09100068db8bac710cb00000064000000000000000000000000000000000000000000000000000000000000000100000000000000000000000000000000000000000000000000000000000000000000000000000000000000000000000000000000ffff9a5889f795069a41a8a300000000000000000000000000000000000000000000000000000000000000000000000000000000000000000000000000000000000000000004d9ca7080b7ea4041c02aaa39b223fe8d0a0e5c4f27ead9083c756cc2d0e30db002a000000000000000000000000000000000000000000000000000000000009c0facee63c1e581464bd7e6718a815c20a5ad529003d7a93a9676b3c02aaa39b223fe8d0a0e5c4f27ead9083c756cc21111111254eeb25477b68fb85ed929f73a9605820000c4e3736f",
          "type": "bytes",
          "name": "data",
          "indexed": false
        }
      ],
      "method": "swap",
      "output": "0x",
      "subtraces": 3,
      "traceAddress": [
        2,
        0
      ]
    },
    {
      "type": "STATICCALL",
      "from": "0xa7ca2c8673bcfa5a26d8ceec2887f2cc2b0db22a",
      "to": "0x9cdf242ef7975d8c68d5c1f5b6905801699b1940",
      "gas": "0xb1bb6",
      "gasUsed": "0x417",
      "input": "0x70a08231000000000000000000000000a7ca2c8673bcfa5a26d8ceec2887f2cc2b0db22a",
      "decodedInput": [
        {
          "value": "0xa7ca2c8673bcfa5a26d8ceec2887f2cc2b0db22a",
          "type": "address",
          "name": "account",
          "indexed": false
        }
      ],
      "output": "0x0000000000000000000000000000000000000000000005a433e014d1b1db6607",
      "decodedOutput": [
        {
          "value": "26640836453018174711303",
          "type": "uint256",
          "indexed": false
        }
      ],
      "subtraces": 1,
      "traceAddress": [
        2,
        0,
        0
      ]
    },
    {
      "type": "DELEGATECALL",
      "from": "0x9cdf242ef7975d8c68d5c1f5b6905801699b1940",
      "to": "0x4067f3e3fd91cf05117b4482e2552f0da031a3b6",
      "gas": "0xaede8",
      "gasUsed": "0x289",
      "input": "0x70a08231000000000000000000000000a7ca2c8673bcfa5a26d8ceec2887f2cc2b0db22a",
      "decodedInput": [
        {
          "value": "0xa7ca2c8673bcfa5a26d8ceec2887f2cc2b0db22a",
          "type": "address",
          "name": "account",
          "indexed": false
        }
      ],
      "method": "balanceOf",
      "output": "0x0000000000000000000000000000000000000000000005a433e014d1b1db6607",
      "decodedOutput": [
        {
          "value": "26640836453018174711303",
          "type": "uint256",
          "indexed": false
        }
      ],
      "subtraces": 0,
      "traceAddress": [
        2,
        0,
        0,
        0
      ]
    },
    {
      "type": "STATICCALL",
      "from": "0xa7ca2c8673bcfa5a26d8ceec2887f2cc2b0db22a",
      "to": "0xd7efb00d12c2c13131fd319336fdf952525da2af",
      "gas": "0xb3971",
      "gasUsed": "0x9ed",
      "input": "0x70a08231000000000000000000000000a7ca2c8673bcfa5a26d8ceec2887f2cc2b0db22a",
      "decodedInput": [
        {
          "value": "0xa7ca2c8673bcfa5a26d8ceec2887f2cc2b0db22a",
          "type": "address",
          "name": "account",
          "indexed": false
        }
      ],
      "method": "balanceOf",
      "output": "0x0000000000000000000000000000000000000000000000000000000000000000",
      "decodedOutput": [
        {
          "value": "0",
          "type": "uint256",
          "indexed": false
        }
      ],
      "subtraces": 0,
      "traceAddress": [
        2,
        0,
        1
      ]
    },
    {
      "type": "DELEGATECALL",
      "from": "0xa7ca2c8673bcfa5a26d8ceec2887f2cc2b0db22a",
      "to": "0xe07300c13d49b8560f51bb30b45c22ca7cd08af8",
      "gas": "0xae1ab",
      "gasUsed": "0xd5e6",
      "error": "execution reverted",
      "input": "0xa231a78000000000000000000000000000000000000000000000000000000000000000040000000000000000000000009cdf242ef7975d8c68d5c1f5b6905801699b1940000000000000000000000000d7efb00d12c2c13131fd319336fdf952525da2af0000000000000000000000000000000000000000000005a433e014d1b1db660700000000000000000000000000000000000000000000000000000000009c0fac00000000000000000000000000000000000000000000000000000000000000c000000000000000000000000000000000000000000000000000000000000003a812aa3caf0000000000000000000000005141b82f5ffda4c6fe1e372978f1c5427640a1900000000000000000000000009cdf242ef7975d8c68d5c1f5b6905801699b1940000000000000000000000000d7efb00d12c2c13131fd319336fdf952525da2af0000000000000000000000006ec94f50cadcc79984463688de42a0ca696ec2db000000000000000000000000a7ca2c8673bcfa5a26d8ceec2887f2cc2b0db22a0000000000000000000000000000000000000000000005a433e014d1b1db660700000000000000000000000000000000000000000000000000000000009c0fac0000000000000000000000000000000000000000000000000000000000000004000000000000000000000000000000000000000000000000000000000000014000000000000000000000000000000000000000000000000000000000000001600000000000000000000000000000000000000000000000000000000000000000000000000000000000000000000000000000000000000000000000000000021e00000000000000000000000000000000000000020000019d00018300005300206ae4071198002dc6c06ec94f50cadcc79984463688de42a0ca696ec2db00000000000000000000000000000000000000000000000000000000005c63539cdf242ef7975d8c68d5c1f5b6905801699b194051300c95ea31e4501b3b879cae2232087e478d44aeaba0b86991c6218b36c1d19d4a2e9eb0ce3606eb4800841d8a79620000000000000000000000000000000000000000000000000000000000000000000000000000000000000000a0b86991c6218b36c1d19d4a2e9eb0ce3606eb48553a2efc570c9e104942cec6ac1c18118e54c09100068db8bac710cb00000064000000000000000000000000000000000000000000000000000000000000000100000000000000000000000000000000000000000000000000000000000000000000000000000000000000000000000000000000ffff9a5889f795069a41a8a300000000000000000000000000000000000000000000000000000000000000000000000000000000000000000000000000000000000000000004d9ca7080b7ea4041c02aaa39b223fe8d0a0e5c4f27ead9083c756cc2d0e30db002a000000000000000000000000000000000000000000000000000000000009c0facee63c1e581464bd7e6718a815c20a5ad529003d7a93a9676b3c02aaa39b223fe8d0a0e5c4f27ead9083c756cc21111111254eeb25477b68fb85ed929f73a9605820000c4e3736f000000000000000000000000000000000000000000000000",
      "decodedInput": [
        {
          "value": 4,
          "type": "uint8",
          "name": "source",
          "indexed": false
        },
        {
          "value": "0x9cdf242ef7975d8c68d5c1f5b6905801699b1940",
          "type": "address",
          "name": "tokenIn",
          "indexed": false
        },
        {
          "value": "0xd7efb00d12c2c13131fd319336fdf952525da2af",
          "type": "address",
          "name": "tokenOut",
          "indexed": false
        },
        {
          "value": "26640836453018174711303",
          "type": "uint256",
          "name": "amountIn",
          "indexed": false
        },
        {
          "value": "10227628",
          "type": "uint256",
          "name": "minAmountOut",
          "indexed": false
        },
        {
          "value": "0x12aa3caf0000000000000000000000005141b82f5ffda4c6fe1e372978f1c5427640a1900000000000000000000000009cdf242ef7975d8c68d5c1f5b6905801699b1940000000000000000000000000d7efb00d12c2c13131fd319336fdf952525da2af0000000000000000000000006ec94f50cadcc79984463688de42a0ca696ec2db000000000000000000000000a7ca2c8673bcfa5a26d8ceec2887f2cc2b0db22a0000000000000000000000000000000000000000000005a433e014d1b1db660700000000000000000000000000000000000000000000000000000000009c0fac0000000000000000000000000000000000000000000000000000000000000004000000000000000000000000000000000000000000000000000000000000014000000000000000000000000000000000000000000000000000000000000001600000000000000000000000000000000000000000000000000000000000000000000000000000000000000000000000000000000000000000000000000000021e00000000000000000000000000000000000000020000019d00018300005300206ae4071198002dc6c06ec94f50cadcc79984463688de42a0ca696ec2db00000000000000000000000000000000000000000000000000000000005c63539cdf242ef7975d8c68d5c1f5b6905801699b194051300c95ea31e4501b3b879cae2232087e478d44aeaba0b86991c6218b36c1d19d4a2e9eb0ce3606eb4800841d8a79620000000000000000000000000000000000000000000000000000000000000000000000000000000000000000a0b86991c6218b36c1d19d4a2e9eb0ce3606eb48553a2efc570c9e104942cec6ac1c18118e54c09100068db8bac710cb00000064000000000000000000000000000000000000000000000000000000000000000100000000000000000000000000000000000000000000000000000000000000000000000000000000000000000000000000000000ffff9a5889f795069a41a8a300000000000000000000000000000000000000000000000000000000000000000000000000000000000000000000000000000000000000000004d9ca7080b7ea4041c02aaa39b223fe8d0a0e5c4f27ead9083c756cc2d0e30db002a000000000000000000000000000000000000000000000000000000000009c0facee63c1e581464bd7e6718a815c20a5ad529003d7a93a9676b3c02aaa39b223fe8d0a0e5c4f27ead9083c756cc21111111254eeb25477b68fb85ed929f73a9605820000c4e3736f",
          "type": "bytes",
          "name": "data",
          "indexed": false
        }
      ],
      "method": "swap",
      "output": "0x",
      "subtraces": 5,
      "traceAddress": [
        2,
        0,
        2
      ]
    },
    {
      "type": "STATICCALL",
      "from": "0xa7ca2c8673bcfa5a26d8ceec2887f2cc2b0db22a",
      "to": "0xd7efb00d12c2c13131fd319336fdf952525da2af",
      "gas": "0xadb3e",
      "gasUsed": "0x21d",
      "input": "0x70a08231000000000000000000000000a7ca2c8673bcfa5a26d8ceec2887f2cc2b0db22a",
      "decodedInput": [
        {
          "value": "0xa7ca2c8673bcfa5a26d8ceec2887f2cc2b0db22a",
          "type": "address",
          "name": "account",
          "indexed": false
        }
      ],
      "method": "balanceOf",
      "output": "0x0000000000000000000000000000000000000000000000000000000000000000",
      "decodedOutput": [
        {
          "value": "0",
          "type": "uint256",
          "indexed": false
        }
      ],
      "subtraces": 0,
      "traceAddress": [
        2,
        0,
        2,
        0
      ]
    },
    {
      "type": "CALL",
      "from": "0xa7ca2c8673bcfa5a26d8ceec2887f2cc2b0db22a",
      "to": "0x9cdf242ef7975d8c68d5c1f5b6905801699b1940",
      "gas": "0xaa862",
      "gasUsed": "0x1430",
      "value": "0x0",
      "input": "0x095ea7b30000000000000000000000001111111254eeb25477b68fb85ed929f73a9605820000000000000000000000000000000000000000000000000000000000000000",
      "decodedInput": [
        {
          "value": "0x1111111254eeb25477b68fb85ed929f73a960582",
          "type": "address",
          "name": "spender",
          "indexed": false
        },
        {
          "value": "0",
          "type": "uint256",
          "name": "amount",
          "indexed": false
        }
      ],
      "output": "0x0000000000000000000000000000000000000000000000000000000000000001",
      "decodedOutput": [
        {
          "value": true,
          "type": "bool",
          "indexed": false
        }
      ],
      "subtraces": 1,
      "traceAddress": [
        2,
        0,
        2,
        1
      ]
    },
    {
      "type": "DELEGATECALL",
      "from": "0x9cdf242ef7975d8c68d5c1f5b6905801699b1940",
      "to": "0x4067f3e3fd91cf05117b4482e2552f0da031a3b6",
      "gas": "0xa7c5f",
      "gasUsed": "0x129f",
      "input": "0x095ea7b30000000000000000000000001111111254eeb25477b68fb85ed929f73a9605820000000000000000000000000000000000000000000000000000000000000000",
      "decodedInput": [
        {
          "value": "0x1111111254eeb25477b68fb85ed929f73a960582",
          "type": "address",
          "name": "spender",
          "indexed": false
        },
        {
          "value": "0",
          "type": "uint256",
          "name": "amount",
          "indexed": false
        }
      ],
      "method": "approve",
      "output": "0x0000000000000000000000000000000000000000000000000000000000000001",
      "decodedOutput": [
        {
          "value": true,
          "type": "bool",
          "indexed": false
        }
      ],
      "subtraces": 0,
      "traceAddress": [
        2,
        0,
        2,
        1,
        0
      ]
    },
    {
      "type": "STATICCALL",
      "from": "0xa7ca2c8673bcfa5a26d8ceec2887f2cc2b0db22a",
      "to": "0x9cdf242ef7975d8c68d5c1f5b6905801699b1940",
      "gas": "0xa9127",
      "gasUsed": "0x4d6",
      "input": "0xdd62ed3e000000000000000000000000a7ca2c8673bcfa5a26d8ceec2887f2cc2b0db22a0000000000000000000000001111111254eeb25477b68fb85ed929f73a960582",
      "decodedInput": [
        {
          "value": "0xa7ca2c8673bcfa5a26d8ceec2887f2cc2b0db22a",
          "type": "address",
          "name": "owner",
          "indexed": false
        },
        {
          "value": "0x1111111254eeb25477b68fb85ed929f73a960582",
          "type": "address",
          "name": "spender",
          "indexed": false
        }
      ],
      "output": "0x0000000000000000000000000000000000000000000000000000000000000000",
      "decodedOutput": [
        {
          "value": "0",
          "type": "uint256",
          "indexed": false
        }
      ],
      "subtraces": 1,
      "traceAddress": [
        2,
        0,
        2,
        2
      ]
    },
    {
      "type": "DELEGATECALL",
      "from": "0x9cdf242ef7975d8c68d5c1f5b6905801699b1940",
      "to": "0x4067f3e3fd91cf05117b4482e2552f0da031a3b6",
      "gas": "0xa6581",
      "gasUsed": "0x345",
      "input": "0xdd62ed3e000000000000000000000000a7ca2c8673bcfa5a26d8ceec2887f2cc2b0db22a0000000000000000000000001111111254eeb25477b68fb85ed929f73a960582",
      "decodedInput": [
        {
          "value": "0xa7ca2c8673bcfa5a26d8ceec2887f2cc2b0db22a",
          "type": "address",
          "name": "owner",
          "indexed": false
        },
        {
          "value": "0x1111111254eeb25477b68fb85ed929f73a960582",
          "type": "address",
          "name": "spender",
          "indexed": false
        }
      ],
      "method": "allowance",
      "output": "0x0000000000000000000000000000000000000000000000000000000000000000",
      "decodedOutput": [
        {
          "value": "0",
          "type": "uint256",
          "indexed": false
        }
      ],
      "subtraces": 0,
      "traceAddress": [
        2,
        0,
        2,
        2,
        0
      ]
    },
    {
      "type": "CALL",
      "from": "0xa7ca2c8673bcfa5a26d8ceec2887f2cc2b0db22a",
      "to": "0x9cdf242ef7975d8c68d5c1f5b6905801699b1940",
      "gas": "0xa87b6",
      "gasUsed": "0x59b8",
      "value": "0x0",
      "input": "0x095ea7b30000000000000000000000001111111254eeb25477b68fb85ed929f73a9605820000000000000000000000000000000000000000000005a433e014d1b1db6607",
      "decodedInput": [
        {
          "value": "0x1111111254eeb25477b68fb85ed929f73a960582",
          "type": "address",
          "name": "spender",
          "indexed": false
        },
        {
          "value": "26640836453018174711303",
          "type": "uint256",
          "name": "amount",
          "indexed": false
        }
      ],
      "output": "0x0000000000000000000000000000000000000000000000000000000000000001",
      "decodedOutput": [
        {
          "value": true,
          "type": "bool",
          "indexed": false
        }
      ],
      "subtraces": 1,
      "traceAddress": [
        2,
        0,
        2,
        3
      ]
    },
    {
      "type": "DELEGATECALL",
      "from": "0x9cdf242ef7975d8c68d5c1f5b6905801699b1940",
      "to": "0x4067f3e3fd91cf05117b4482e2552f0da031a3b6",
      "gas": "0xa5c35",
      "gasUsed": "0x5827",
      "input": "0x095ea7b30000000000000000000000001111111254eeb25477b68fb85ed929f73a9605820000000000000000000000000000000000000000000005a433e014d1b1db6607",
      "decodedInput": [
        {
          "value": "0x1111111254eeb25477b68fb85ed929f73a960582",
          "type": "address",
          "name": "spender",
          "indexed": false
        },
        {
          "value": "26640836453018174711303",
          "type": "uint256",
          "name": "amount",
          "indexed": false
        }
      ],
      "method": "approve",
      "output": "0x0000000000000000000000000000000000000000000000000000000000000001",
      "decodedOutput": [
        {
          "value": true,
          "type": "bool",
          "indexed": false
        }
      ],
      "subtraces": 0,
      "traceAddress": [
        2,
        0,
        2,
        3,
        0
      ]
    },
    {
      "type": "CALL",
      "from": "0xa7ca2c8673bcfa5a26d8ceec2887f2cc2b0db22a",
      "to": "0x1111111254eeb25477b68fb85ed929f73a960582",
      "gas": "0xa196d",
      "gasUsed": "0x35da",
      "value": "0x0",
      "error": "execution reverted",
      "input": "0x12aa3caf0000000000000000000000005141b82f5ffda4c6fe1e372978f1c5427640a1900000000000000000000000009cdf242ef7975d8c68d5c1f5b6905801699b1940000000000000000000000000d7efb00d12c2c13131fd319336fdf952525da2af0000000000000000000000006ec94f50cadcc79984463688de42a0ca696ec2db000000000000000000000000a7ca2c8673bcfa5a26d8ceec2887f2cc2b0db22a0000000000000000000000000000000000000000000005a433e014d1b1db660700000000000000000000000000000000000000000000000000000000009c0fac0000000000000000000000000000000000000000000000000000000000000004000000000000000000000000000000000000000000000000000000000000014000000000000000000000000000000000000000000000000000000000000001600000000000000000000000000000000000000000000000000000000000000000000000000000000000000000000000000000000000000000000000000000021e00000000000000000000000000000000000000020000019d00018300005300206ae4071198002dc6c06ec94f50cadcc79984463688de42a0ca696ec2db00000000000000000000000000000000000000000000000000000000005c63539cdf242ef7975d8c68d5c1f5b6905801699b194051300c95ea31e4501b3b879cae2232087e478d44aeaba0b86991c6218b36c1d19d4a2e9eb0ce3606eb4800841d8a79620000000000000000000000000000000000000000000000000000000000000000000000000000000000000000a0b86991c6218b36c1d19d4a2e9eb0ce3606eb48553a2efc570c9e104942cec6ac1c18118e54c09100068db8bac710cb00000064000000000000000000000000000000000000000000000000000000000000000100000000000000000000000000000000000000000000000000000000000000000000000000000000000000000000000000000000ffff9a5889f795069a41a8a300000000000000000000000000000000000000000000000000000000000000000000000000000000000000000000000000000000000000000004d9ca7080b7ea4041c02aaa39b223fe8d0a0e5c4f27ead9083c756cc2d0e30db002a000000000000000000000000000000000000000000000000000000000009c0facee63c1e581464bd7e6718a815c20a5ad529003d7a93a9676b3c02aaa39b223fe8d0a0e5c4f27ead9083c756cc21111111254eeb25477b68fb85ed929f73a9605820000c4e3736f",
      "decodedInput": [
        {
          "value": "0x5141b82f5ffda4c6fe1e372978f1c5427640a190",
          "type": "address",
          "name": "executor",
          "indexed": false
        },
        {
          "value": {
            "srcToken": "0x9cdf242ef7975d8c68d5c1f5b6905801699b1940",
            "dstToken": "0xd7efb00d12c2c13131fd319336fdf952525da2af",
            "srcReceiver": "0x6ec94f50cadcc79984463688de42a0ca696ec2db",
            "dstReceiver": "0xa7ca2c8673bcfa5a26d8ceec2887f2cc2b0db22a",
            "amount": "26640836453018174711303",
            "minReturnAmount": "10227628",
            "flags": "4"
          },
          "type": "(address,address,address,address,uint256,uint256,uint256)",
          "name": "desc",
          "indexed": false
        },
        {
          "value": "0x",
          "type": "bytes",
          "name": "permit",
          "indexed": false
        },
        {
          "value": "0x00000000000000000000000000000000000000020000019d00018300005300206ae4071198002dc6c06ec94f50cadcc79984463688de42a0ca696ec2db00000000000000000000000000000000000000000000000000000000005c63539cdf242ef7975d8c68d5c1f5b6905801699b194051300c95ea31e4501b3b879cae2232087e478d44aeaba0b86991c6218b36c1d19d4a2e9eb0ce3606eb4800841d8a79620000000000000000000000000000000000000000000000000000000000000000000000000000000000000000a0b86991c6218b36c1d19d4a2e9eb0ce3606eb48553a2efc570c9e104942cec6ac1c18118e54c09100068db8bac710cb00000064000000000000000000000000000000000000000000000000000000000000000100000000000000000000000000000000000000000000000000000000000000000000000000000000000000000000000000000000ffff9a5889f795069a41a8a300000000000000000000000000000000000000000000000000000000000000000000000000000000000000000000000000000000000000000004d9ca7080b7ea4041c02aaa39b223fe8d0a0e5c4f27ead9083c756cc2d0e30db002a000000000000000000000000000000000000000000000000000000000009c0facee63c1e581464bd7e6718a815c20a5ad529003d7a93a9676b3c02aaa39b223fe8d0a0e5c4f27ead9083c756cc21111111254eeb25477b68fb85ed929f73a960582",
          "type": "bytes",
          "name": "data",
          "indexed": false
        }
      ],
      "method": "swap",
      "output": "0x",
      "subtraces": 1,
      "traceAddress": [
        2,
        0,
        2,
        4
      ]
    },
    {
      "type": "CALL",
      "from": "0x1111111254eeb25477b68fb85ed929f73a960582",
      "to": "0x9cdf242ef7975d8c68d5c1f5b6905801699b1940",
      "gas": "0x9e98c",
      "gasUsed": "0x2dee",
      "value": "0x0",
      "error": "execution reverted",
      "input": "0x23b872dd000000000000000000000000a7ca2c8673bcfa5a26d8ceec2887f2cc2b0db22a0000000000000000000000006ec94f50cadcc79984463688de42a0ca696ec2db0000000000000000000000000000000000000000000005a433e014d1b1db6607",
      "decodedInput": [
        {
          "value": "0xa7ca2c8673bcfa5a26d8ceec2887f2cc2b0db22a",
          "type": "address",
          "name": "from",
          "indexed": false
        },
        {
          "value": "0x6ec94f50cadcc79984463688de42a0ca696ec2db",
          "type": "address",
          "name": "to",
          "indexed": false
        },
        {
          "value": "26640836453018174711303",
          "type": "uint256",
          "name": "amount",
          "indexed": false
        }
      ],
      "output": "0x",
      "subtraces": 1,
      "traceAddress": [
        2,
        0,
        2,
        4,
        0
      ]
    },
    {
      "type": "DELEGATECALL",
      "from": "0x9cdf242ef7975d8c68d5c1f5b6905801699b1940",
      "to": "0x4067f3e3fd91cf05117b4482e2552f0da031a3b6",
      "gas": "0x9c07e",
      "gasUsed": "0x2c47",
      "error": "execution reverted",
      "errorReason": "Insufficient balance for amount + tax",
      "input": "0x23b872dd000000000000000000000000a7ca2c8673bcfa5a26d8ceec2887f2cc2b0db22a0000000000000000000000006ec94f50cadcc79984463688de42a0ca696ec2db0000000000000000000000000000000000000000000005a433e014d1b1db6607",
      "decodedInput": [
        {
          "value": "0xa7ca2c8673bcfa5a26d8ceec2887f2cc2b0db22a",
          "type": "address",
          "name": "sender",
          "indexed": false
        },
        {
          "value": "0x6ec94f50cadcc79984463688de42a0ca696ec2db",
          "type": "address",
          "name": "recipient",
          "indexed": false
        },
        {
          "value": "26640836453018174711303",
          "type": "uint256",
          "name": "amount",
          "indexed": false
        }
      ],
      "method": "transferFrom",
      "output": "0x",
      "subtraces": 0,
      "traceAddress": [
        2,
        0,
        2,
        4,
        0,
        0
      ]
    }
  ],
  "stateChanges": [
    {
      "address": "0x4838b106fce9647bdf1e7877bf73ce8b0bad5f97",
      "balance": {
        "previousValue": "0xe155b86af8adf44c",
        "newValue": "0xe156746a7661e84c"
      }
    },
    {
      "address": "0xfea929988acb936a66e2b2ec39bc087cb7922ff4",
      "nonce": {
        "previousValue": "0x18",
        "newValue": "0x19"
      },
      "balance": {
        "previousValue": "0x65f132becc9cb",
        "newValue": "0x58a8aa2632265"
      }
    }
  ]
}